:020000040800F2
:10000000A008002005010008C31B0008151B0008FC
:10001000C11B000869080008B91E000800000000A4
:10002000000000000000000000000000C71B0008E6
:100030006B08000800000000C51B0008C91B000871
:100040001F0100081F0100081F0100081F01000810
:100050001F0100081F0100081F0100081F01000800
:100060001F0100081F0100081F0100081F010008F0
:100070001F0100081F0100081F0100081F010008E0
:100080001F0100081F0100081F0100081F010008D0
:100090001F0100081F0100081F0100081F010008C0
:1000A0001F0100081F0100081F0100081F010008B0
:1000B0001F0100081F0100081F0100081F010008A0
:1000C0001F0100081F0100081F0100081F01000890
:1000D0001F010008AD1E00081F0100081F010008D5
:1000E0001F0100081F0100081F010008DFF810D0E1
:1000F00000F04EF800480047F91E0008AFF30080FA
:10010000A00800200648804706480047FEE7FEE7B3
:10011000FEE7FEE7FEE7FEE7FEE7FEE7FEE7FEE7B7
:100120002B1C0008ED000008202A04DB203A21FAED
:1001300002F00021704721FA02F3D040C2F1200200
:10014000914008431946704740EA01039B0703D0DA
:1001500009E008C9121F08C0042AFAD203E011F806
:10016000013B00F8013B521EF9D27047D2B201E0C8
:1001700000F8012B491EFBD270470022F6E710B5AC
:1001800013460A4604461946FFF7F0FF204610BD05
:10019000064C074D06E0E06840F0010394E80700D4
:1001A00098471034AC42F6D3FFF7A4FF681F00084D
:1001B000881F00080A4601464FF6FF70AFF3008023
:1001C00070B500234AF201050EE0CC5C60400024CB
:1001D000C60702D085EA500000E04008641CE4B283
:1001E000082CF5D35B1C9BB29342EED370BD00008C
:1001F0001E4810B50168CA6822F02002CA60016872
:10020000CA6822F01002CA600168CA6822F040027F
:10021000CA600168CA6822F08002CA600068416949
:1002200021F00101416101F0A9F94FF0E021002026
:100230000861486188610D4801F0F0F90B4801F050
:1002400037FA252000F0C9FE252000F0B9FE72B66D
:100250000020411E820002F1E022C2F88011C2F8A3
:100260008012401C0828F5D310BD00003800002083
:1002700070B5164C0546A078022801D0042070BD48
:100280006878E179884201D0052070BD6A8882B122
:100290006169606A00F010F958B100F095FC698856
:1002A000281D00F087FA064600F044FC1EB1072026
:1002B00070BD062070BD6A88291DA089FFF780FFE8
:1002C000A081E079401CE071002070BD100000208A
:1002D00070B5214CA178022901D0042070BD41885D
:1002E000022905D180886081D4E90501884201D0C6
:1002F000032070BD00F068FCA07970B1607962697C
:1003000040F47F41606A1044401E00F081FA10B151
:1003100000F010FC16E00020A07100F00BFC6089DA
:10032000A189884201D0082070BD606A00F0E2F81F
:1003300050B100F049FC606A00F064F9054600F035
:10034000F9FB1DB1072070BD092070BD606A2062F5
:100350000320A070002070BD1000002038B50446B6
:10036000007803221F4D062834D2DFE800F0330363
:100370000C10141A608860BB012000F02DF900F009
:10038000C1FD286114E0204600F02EF806E020466A
:10039000FFF76EFF02E02046FFF79AFF020007D04A
:1003A00019E06088A8B900F09FF888B10120E870D2
:1003B0006178207800228DF800008DF80120A8785F
:1003C0008DF8020003236A46802000F04FF938BD03
:1003D000092200E0012221786078BDE8384000F071
:1003E00079B900001000002070B504464088082844
:1003F00001D0032070BDA179A08861F31F40E1798D
:1004000040EA0165A17A2089082D61F31F40E17A55
:1004100040EA016614D32A460021304600F04CF829
:1004200070B1012000F0D8F8064846628561617815
:10043000491CC171022181700021C170084670BD44
:10044000062070BD1000002010B5104C1049206827
:10045000884205D1606800F021F808B1606800E0CA
:100460000C480D4C2062606200F04CFD206100F0F1
:100470003BF820710020E07020702081607000F057
:10048000ABF8BDE8104000F037B9000000FC0008F0
:10049000435050410040000810000020054901442D
:1004A000B1F53C4F01D2800501D0002070470120FA
:1004B0007047000000C0FFF770B515460E460446B1
:1004C000FFF7ECFF48B145B1A1194819A14204D387
:1004D000884202D30349884201D9002070BD01201F
:1004E00070BD000000FC00080148006A00F002B87E
:1004F0001000002010B50446FFF7D0FF00280CD0F4
:1005000021686068A1F10051B1F5A04F04D8A04264
:1005100002D30449884201D3002010BDC007FCD09B
:10052000012010BD00FC000870B50E4E306A056851
:100530004468FFF7D9FF002813D0FFF759FE0A4996
:10054000306A0860BFF34F8FBFF36F8F85F3088861
:1005500062B6BFF34F8FBFF36F8FA446BDE8704004
:10056000604770BD1000002008ED00E02DE9F0416B
:1005700016460446082913D394B18EB12078552825
:1005800002D16078AA2802D00120BDE8F081A588B8
:10059000B5F5807F04D805F1080080B2884201D00B
:1005A0000320F2E76018091F30F8027C89B2A01C12
:1005B000FFF700FE874201D00220E6E7A078307006
:1005C000E0787070758025B12A46A11D301DFFF7B7
:1005D000BBFD0020D9E70000094900224FF6FF7358
:1005E0004A618A614A818B81FF234B718A71CA718A
:1005F000521ECA610A6A4A6200B1012088707047BF
:1006000010000020F0B587B0002501950746009541
:100610000295039504AE134C0695FFF73FFFC0B15A
:1006200011480095CDE904070120CDE9024006A953
:10063000684600F02BFA60B936F8152000232146F1
:10064000012000F081FA20B9208836F81510884280
:1006500002D0012007B0F0BDA41C6D1C042DEBD30B
:100660000020F7E700FC00084350504130B51C461D
:10067000C3B01346B4F5807F27D855228DF80020EB
:10068000AA228DF801208DF802008DF80440200A7E
:100690008DF803108DF805006D462BB124B122466C
:1006A0001946A81DFFF750FD201D81B2A81CFFF7B9
:1006B00081FD291908348871000AC871A2B24FF06F
:1006C000FF336946024801F0D4F943B030BD000061
:1006D0003800002008B503238DF8001005498DF877
:1006E00001206A4689788DF8021001468120FFF7C3
:1006F000BDFF08BD10000020074882B000680168F7
:10070000416800910168406800904FF4007203490D
:10071000014802B000F039BF38000020A0000020DE
:1007200070B5224CADF5427D6078002628B1667028
:10073000002103220846FFF7CDFF2078B8B172B63A
:1007400025891B492A466846FFF7FEFC267062B6DB
:1007500080AA29466846FFF709FF020004D000215D
:100760000846FFF7B7FF02E080A8FFF7F7FDE07843
:1007700038B1FFF7B9FE20B10A2000F075F9FFF794
:10078000D3FEFFF7B1FE00280DD0A07808B10128F4
:1007900009D100F0B7FB2169401A42F228318842A2
:1007A00001D30120E0700DF5427D70BD10000020E6
:1007B000A00200202DE9F0470F46060014D09FB19B
:1007C0000025124C4FF00108A9461BE0A079002833
:1007D000705D0CD06179626941EA0021606A104461
:1007E000401E00F015F830B10120BDE8F0876071BF
:1007F00084F8068001E084F806906069401C6D1C56
:10080000ADB26061BD42E1D30020EEE710000020F0
:10081000F0B50446C0F3090085B0261A0020114F38
:1008200000900190029003900490F8690D46B04248
:100830000BD00120CDE9026004A9684600F026F93A
:1008400010B1012005B0F0BDFE612A46002321460B
:10085000012000F079F90028F3D12088A842F0D1D6
:100860000020EFE710000020FEE7704772B6FEE7B9
:1008700006490020C8610648016941F00401016190
:10088000016941F0400101617047000080000020D3
:1008900000200240064A0021D16106490A6942F05F
:1008A00002020A614861086940F04000086170472F
:1008B0008000002000200240044B0022DA61044A3C
:1008C000136943F001031361018070478000002029
:1008D0000020024014480022C168CB06134904D509
:1008E000CA6942F00202CA611022C3685B0705D5DB
:1008F000CB6943F00103CB6142F00402C369DB071B
:1009000007D0CB6943F00403CB61C16921F0010139
:10091000C161A2F58071013901D0C2607047C1691F
:1009200021F00101C16170470020024080000020D9
:1009300070B5054600F0E6FA0646114C09E0681C61
:1009400007D025B100F0DEFA801BA84201D90320B0
:1009500070BDE068C007F2D1E068800601D52020B4
:10096000E060E068C00605D4E069C00702D1E06835
:10097000400703D5FFF7AEFF012070BD002070BD1A
:100980000020024010B590F821100022022905D065
:100990000421816380F82020012010BD01680B68CC
:1009A00023F00E030B6001680B6823F001030B605A
:1009B00090F84030C46B012101FA03F3636080F8C2
:1009C000211080F82020104610BD000010B590F8CE
:1009D00021100024022903D00421816301243DE079
:1009E00001680A6822F00E020A6001680A6822F0B3
:1009F00001020A601A4A0168914201D1012121E0F5
:100A0000174A1432914201D110211BE0144A2832B6
:100A1000914201D1891515E0114A3C32914201D130
:100A200089140FE00E4A5032914202D14FF48031C6
:100A300008E00B4A6432914202D14FF4801101E088
:100A40004FF08071064A083A5160012180F8211068
:100A5000002180F82010416B01B18847204610BD6D
:100A600008000240806B704770B5044600F04AFAF7
:100A70000546601C02D004480078044400F042FAA5
:100A8000401BA042FAD370BD000000202DE9F047C2
:100A9000054626480F460126017E01290FD0012177
:100AA000814601762868DFF888804CF250340228AD
:100AB00008D0A2462046FFF73BFFA8B131E0022054
:100AC000BDE8F0872046FFF733FF08BB0120FFF7A2
:100AD000CFFE2046FFF72CFFD8F81010064621F075
:100AE0000401C8F810101CE04FF0FF303860AC680B
:100AF00011E02046FFF7CEFE5046FFF719FFD8F869
:100B00001010060021F00201C8F8101001D03C605E
:100B100007E004F58064D5E9020100EB8120A042E2
:100B2000E7D8002189F818103046C9E78000002076
:100B3000002002400348016941F08001016100206A
:100B400070470000002002402DE9F05F07461C4876
:100B500088460024017E15461E46012909D0012140
:100B6000814601764CF2503A5046FFF7E1FE18B14B
:100B700022E00220BDE8F09F012F02D0022F00D01A
:100B80000427D346DFF83CA0220128463146FFF770
:100B9000CBFA81B208EB4400FFF78EFE5846FFF710
:100BA000C7FEDAF8102022F00102CAF8102018B9A6
:100BB000641CE4B2BC42E7D3002289F81820D9E7CC
:100BC0008000002000200240064900200A69120629
:100BD00007D5054A4A60054A4A600969090600D5F1
:100BE000012070470020024023016745AB89EFCD0B
:100BF0002DE9F04300233E4F0F2573E001229A4078
:100C00000A406DD023F00304E619D6F808809C074B
:100C10004FEA147C05FA0CF909EA0804DFF8D480DD
:100C2000404502D14FF0000816E0DFF8CC80404587
:100C300002D14FF001080FE0DFF8C080404502D13B
:100C40004FF0020808E0DFF8B880404502D14FF0CD
:100C5000030801E04FF0040808FA0CF8A04522D17F
:100C6000284CD4F800C02CEA020CC4F800C0241DA3
:100C7000D4F800C02CEA020CC4F800C0214C0C349B
:100C8000D4F800C02CEA020CC4F800C0241FD4F829
:100C900000C02CEA020CC4F800C0D6F808C02CEA48
:100CA000090CC6F808C0FF2A01D8064601E000F189
:100CB00004064FEA830401D9A4F12004D6F800C049
:100CC00005FA04F82CEA080C4FF0040808FA04F8B6
:100CD0004CEA080CC6F800C0C46824EA0204C460E8
:100CE00003F1010331FA03F288D1BDE8F08300007B
:100CF0000000014000080140000C014000100140CC
:100D000000140140000401402DE9F84FDFF8B891CC
:100D10000024A9F1040B23460F2709F1040AABF1C3
:100D2000040EC9E00125A5402A40AA427DD1674EA4
:100D3000D1F804C0ACEB0608B44532D014DCBCF1E9
:100D4000030F3AD009DCBCF1000F2AD0BCF1010F2F
:100D50001CD0BCF1020F31D11DE0BCF1110F17D036
:100D6000BCF1120F2AD119E0B8F5881F19D006DCA2
:100D7000B8F5803F15D0B8F5801F1FD111E0B8F548
:100D8000001F0ED0B8F5041F18D10AE0CB6815E09B
:100D9000CB681B1D12E0CB6808330FE0CB680C3327
:100DA0000CE08B682BB1012B4FF0080303D0456199
:100DB00004E0042302E0056100E00023FF2A01D8DB
:100DC000064601E000F104064FEA840501D9A5F1C9
:100DD0002005D6F8008007FA05FC28EA0C0803FA7B
:100DE00005F548EA0508C6F800804D68ED0062D5B3
:100DF000374DAE6946F00106AE61AD6924F00306D9
:100E000005F001050095334D06EB050CDCF80850A4
:100E1000A607360F07FA06F825EA0805DFF8B880B6
:100E2000404503D14FF0000817E044E0DFF8AC8004
:100E3000404502D14FF001080FE0DFF8A4804045A3
:100E400002D14FF0020808E0DFF89880404502D157
:100E50004FF0030801E04FF0040808FA06F848EAEA
:100E60000508CCF808804D68D9F80060ED024D46C1
:100E700001D5164300E096432E604D68DAF8006015
:100E8000AD02554601D5164300E096432E604D68ED
:100E9000DBF80060AD035D4601D5164300E09643E4
:100EA0002E604D68DEF80060ED03754601D51643EF
:100EB00000E096432E60641C0D682A46E5407FF4EE
:100EC00031AFBDE8F88F00000804014000001110A8
:100ED000001002400000014000080140000C0140E9
:100EE0000010014000140140C26821EA02030A40D8
:100EF00043EA0241016170470AB101617047090488
:100F0000FBE70000014880687047000000000020F7
:100F10000248816802781144816070470000002017
:100F2000074810B5016841F010010160032000F08E
:100F300093F80F2000F006F800F024F8002010BD10
:100F40000020024070B50D4D04464FF47A712878A8
:100F5000B1FBF0F00A490968B1FBF0F000F0FAFAD1
:100F600048B9102C07D200222146501E00F054F838
:100F700000206C6070BD012070BD000000000020EA
:100F80000C0000200C4808B5816941F00101816125
:100F9000816901F001010091C16941F08051C16195
:100FA000C06900F0805000900448416821F0E06181
:100FB00041F00071416008BD001002400000014096
:100FC000002809DB00F01F02012191404009800048
:100FD00000F1E020C0F88012704700280DDB00F01F
:100FE0001F02012191404009800000F1E020C0F87B
:100FF0008011BFF34F8FBFF36F8F7047002809DB5D
:1010000000F01F02012191404009800000F1E02022
:10101000C0F8001170470000F0B40E4B1B680C467E
:10102000C3F30223C3F10705042D00D90425191DBC
:10103000072901D2002300E0DB1E012606FA05F194
:10104000491E214099409E40761E16403143F0BC17
:1010500000F033BF0CED00E0064900F0070208681D
:101060004FF6FF03184040EA0220034A104308608D
:10107000704700000CED00E00000FA052DE9F04794
:101080000F46050061D0434E306800F00700B842BB
:1010900009D2306820F0070038433060306800F033
:1010A0000700B84251D128683B4C810712D5400750
:1010B00003D5606840F4E06060602878000703D5DD
:1010C000606840F4605060606068A96820F0F000DB
:1010D000084360602878C00728D06868012810D0CD
:1010E0002168022810D0890700292EDA616821F0D2
:1010F000030101436160FFF705FF804641F2883933
:101100000DE021688903EFE78901EDE7FFF7FAFEBB
:10111000A0EB0801494502D90320BDE8F0876068CB
:10112000696800F00C00B0EB810FEFD1306800F07F
:101130000700B8420BD9306820F007003843306010
:10114000306800F00700B84201D00120E5E72878B8
:10115000400705D56068E96820F4E06008436060F6
:101160002878000706D56068296920F4605040EAB5
:10117000C100606000F038F86168084AC1F30311EB
:10118000515CC8400649086006480068FFF7DAFE6F
:101190000020C2E700200240001002404E1F00085D
:1011A0000C0000200400002004480549006849683C
:1011B000044AC1F30221515CC84070470C00002072
:1011C000001002405E1F0008044805490068496895
:1011D000044AC1F3C221515CC84070470C00002092
:1011E000001002405E1F00080E4A51680E4801F0D0
:1011F0000C03042B11D0082B0FD10C48C1F38343EF
:10120000C903C05C0AD55168084AC1F34041921E27
:10121000515C054A5043B0FBF1F070470449484324
:10122000704700000010024000127A003E1F0008C4
:1012300000093D002DE9F84F040070D02078C04D22
:10124000C00749D06868C0F38100012807D06868EA
:10125000C0F38100022809D16868C00306D5286858
:10126000800339D560680028E7D035E06068B0F5C4
:10127000803F0BD010B1B0F5A02F11D0286820F41A
:1012800080302860286820F4802002E0286840F43C
:1012900080302860606890B1FFF734FE06460AE0AF
:1012A000286840F480202860F0E700BFFFF72AFE9E
:1012B000801B642873D828688003F7D50CE0FFF7FB
:1012C00021FE064605E000BFFFF71CFE801B6428D8
:1012D000F0D828688003F7D420789A4E80074FF022
:1012E00001094FF0000839D5686810F00C0F07D0DD
:1012F0006868C0F38100022809D16868C00306D479
:101300002868800714D52069012808D110E02069D9
:10131000B0B1C6F80090FFF7F5FD074605E00AE119
:10132000FFF7F0FDC01B0228C4D828688007F7D556
:101330002868616920F0F80040EAC10028600DE0EB
:10134000C6F80080FFF7DEFD074604E0FFF7DAFD90
:10135000C01B022823D828688007F7D4207800070C
:101360002CD57948A169D9B1C0F80090FFF7CAFD22
:10137000074604E0FFF7C6FDC01B02280FD8686AC5
:101380008007F7D571484FF4FA510068B0FBF1F0CF
:10139000009000BF0098411E0091FAD20EE080E05C
:1013A000C0F80080FFF7AEFD074604E0FFF7AAFD96
:1013B000C01B022875D8686A8007F7D420784007D8
:1013C00060D5E8690027C00008D4E86940F0805083
:1013D000E861E869012700F0805000905C480168EE
:1013E000C90513D40168834641F480710160FFF799
:1013F00089FD824606E000BFFFF784FDA0EB0A00EE
:1014000064284ED8DBF80000C005F5D5E068012857
:101410000AD008B1052813D0286A20F001002862FC
:10142000286A20F0040002E0286A40F001002862E7
:10143000E06841F2883B98B1FFF764FD82460BE01B
:10144000286A40F004002862EEE700BFFFF75AFD6B
:10145000A0EB0A0159455AD8286A8007F6D50CE056
:10146000FFF750FD824605E0FFF74CFDA0EB0A01B7
:1014700059454CD8286A8007F6D41FB1E86920F096
:101480008050E861E06988B36968C1F3810102298D
:1014900044D00228C6F8608004D0FFF733FD04462C
:1014A00038E034E0FFF72EFD074604E0FFF72AFDA1
:1014B000C01B02282BD828688001F7D4206AB0F519
:1014C000803F05D16868A16820F400300843686057
:1014D000D4E908010843696821F47411084368607D
:1014E000C6F86090FFF70EFD044606E025E000BF59
:1014F000FFF708FD001B022809D828688001F7D5EE
:101500001BE000BFFFF7FEFC001B022802D90320EE
:10151000BDE8F88F28688001F4D40EE00128F7D0E8
:101520006868226A00F48031914204D1616A00F453
:101530007010884201D00120EAE70020E8E70000AF
:101540000010024000004242800442420C00002091
:101550000070004010B5401EB0F1807F01D3012023
:1015600010BD4FF0E02460610F21601700F0A5FC72
:101570000020A06107202061002010BD4FF0E02076
:10158000016921F002010161704718B5034690F826
:101590004200202801D0022018BD61B15AB10120BB
:1015A000186300205863184600F02CFC0028F3D183
:1015B000196B012901D0012018BD19680A68496812
:1015C000009119680C3151E8002F42F0100241E8F7
:1015D0000024002CF5D118BD70B50C4600680C49EC
:1015E000884214D10B4D2878012658B9B4F5007FF4
:1015F00008D80949224601F50070FEF7A5FD2C81A7
:101600002E7000E06E70BDE87040FFF775B870BDD9
:101610000038014010000020A000002070B50446F2
:1016200020680C3050E8001F21F4907140E800124F
:10163000002AF5D12068143050E8001F21F0010184
:1016400040E80012002AF5D1206B012809D120685A
:101650000C3050E8001F21F0100140E80012002A71
:10166000F5D1206840694FF00005400615D5206887
:10167000143050E8001F21F0400140E80012002A19
:10168000F5D1E06B48B14563E06BFFF77BF920B122
:10169000E06BFFF7E7F9202806D0E585202084F8E5
:1016A00042002563002070BD10206064032070BDDF
:1016B00010B5040015D0242084F841002068C168CA
:1016C00021F40051C160204600F076F900206064EA
:1016D00084F8410084F8420044F8300F60602074C0
:1016E00010BD012010BD7047F8B5016804460868B8
:1016F000CA684B6910F00F0F4FF0000559D003F086
:10170000010602F49077374365D0C10705D0D105B3
:1017100003D5616C41F001016164410705D5D9072A
:1017200003D0616C41F002016164810705D5D907DE
:1017300003D0616C41F004016164010707D502F038
:101740002001314303D0616C41F008016164616C98
:1017500000293AD0800604D5900602D5204600F034
:1017600094FA20684069616CC0F38010090700D4C6
:1017700060B3204600F062FA20684069400621D537
:101780002068143050E8001F21F0400140E80012AA
:10179000002AF5D1E06BA8B16D494163E06BFFF71A
:1017A00015F9002811D0E06B416B01B0BDE8F040A5
:1017B000084783060FD593060DD52046BDE8F840AF
:1017C00000F063BA2046FFF78EFFF8BD2046FFF712
:1017D0008AFF6564F8BD266B2023012E7CD1C606E6
:1017E0007AD5D60678D508684868009048694FF0E1
:1017F0000206400640D5E16B086840680004000C12
:10180000E8D0A28D8242E5D9E085886920282DD0D4
:1018100020680C3050E8001F21F4807140E800126D
:10182000002AF5D12068143050E8001F21F0010192
:1018300040E80012002AF5D12068143050E8001F5B
:1018400021F0400140E80012002AF5D184F842302E
:10185000256320680C3050E8001F21F0100140E89B
:101860000012002AF5D1E06BFFF78CF86663A08DBB
:10187000E18D401A81B22AE0A08DE18D401A81B23B
:10188000E08D0028A6D00029A4D022680C3252E8AE
:10189000000F20F4907042E80007002FF5D1206877
:1018A000143050E8002F22F0010240E80027002FFA
:1018B000F5D184F84230256320680C3050E8002FC1
:1018C00022F0100240E80023002BF5D16663204689
:1018D000FFF782FEF8BDFFE705062BD5150629D5D3
:1018E00094F841002128F5D1A068B0F5805F01D1BE
:1018F0002069B0B1206A411C2162216800784860EB
:10190000E08C401E0004000CE084E3D12068C16834
:1019100021F08001C1602068C16841F04001C160D0
:10192000D8E7206A0088C0F308004860206A801C5D
:101930002062E5E74006CDD55006CBD5CA682046E3
:1019400022F04002CA6084F8413000F0E2F8C1E7BA
:101950002D1C000870B5040004D094F84100002547
:1019600010B106E0012070BD84F84050204600F020
:101970003FF8242084F841002068C16821F4005118
:10198000C160204600F0E2F92068016921F490412D
:1019900001612068416921F02A0141612068C16824
:1019A00041F40051C1606564202084F8410084F84E
:1019B00042006563002070BD10B500680949884287
:1019C0000ED10948816921F4804181614FF4C061E1
:1019D0000648FFF70DF9BDE810402520FFF7FDBAD6
:1019E00010BD000000380140001002400008014016
:1019F00030B585B0002400940194029403940068EB
:101A0000184988422CD11848816941F4804181618C
:101A1000816901F480410491816941F0040181618F
:101A20008069124D00F0040004904FF400700090A3
:101A3000022001900320039069462846FFF764F9CD
:101A40002815CDE90004694628460294FFF75CF9A1
:101A5000002205212520FFF7DFFA2520FFF7CEFA27
:101A600005B030BD003801400010024000080140C0
:101A700070472DE9F843044690F841009846164611
:101A80000D46202802D00220BDE8F88385B17EB142
:101A900000206064212084F84100FFF733FAA68417
:101AA0008146E684A0682027B0F5805F02D003E07D
:101AB0000120E9E7206910B12E4600250EE000263E
:101AC0000CE08021204600F0B8F9A8B9C6B116F89C
:101AD000010B21684860E08C401EE084E08C4B469E
:101AE0004FF00002CDF800800028EAD14FF040010D
:101AF000204600F0A2F940B184F841700320C3E70A
:101B000035F8020BC0F30800E3E784F841700020C9
:101B1000BAE77047FEE7000070B586B000241848A9
:101B20000094019402940394816941F01001816151
:101B3000816901F010010491816941F02001816106
:101B4000816901F020010491816941F00401816102
:101B500080690C4E00F004004FF400550490002200
:101B600029463046FFF7C8F901200095CDE9010468
:101B70000220039069463046FFF7C6F806B070BDF4
:101B800000100240001001400C4810B50A490160E5
:101B90004FF4E1314160002181600C22C160C0E955
:101BA00004128161C161FFF7D5FE002803D0BDE8B2
:101BB0001040FEF75BBE10BD003801403800002029
:101BC000FEE7FEE770477047FFF7A2B930B58FB068
:101BD00028216846FEF7D1FA14210AA8FEF7CDFAAB
:101BE00001210804CDE9001000240294022504918B
:101BF000CDE907504FF4E01009906846FFF71AFB53
:101C000008B172B6FEE70F20CDE90A054FF48060F7
:101C1000CDE90C4002210AA80E94FFF72FFA002804
:101C200001D072B6FEE70FB030BD704710B5406A04
:101C30000021C185C184FFF756FD10BD01680C313C
:101C400051E8002F22F4907241E80023002BF5D1D7
:101C50000168143151E8002F22F0010241E800230D
:101C6000002BF5D1016B012909D101680C3151E834
:101C7000002F22F0100241E80023002BF5D1202193
:101C800080F8421000210163704708B590F84210B7
:101C9000222901D0022008BD82684FF480539A4265
:101CA00001D1016921B1816A9A421BD04AB10AE08F
:101CB0000268816A5268C2F308020A80816A891C3C
:101CC00008E0026972B10268526802F07F020A708D
:101CD000816A491C8162C18D491E0904090CC185B4
:101CE00003D01BE002685268F1E70168CA6822F07D
:101CF0002002CA600168CA6822F48072CA60016862
:101D00004A6922F001024A61202180F84210002134
:101D10004163026B012A03D0FFF7AAFE002008BD31
:101D2000016301680C3151E8002F22F0100241E8F4
:101D30000023002BF5D101680A68D20602D50A6893
:101D400049680091818DFFF747FCE7E770B50446CD
:101D500000680169E26821F4405111430161216981
:101D6000A0680843616908432168CA6841F20C63AE
:101D70009A430243CA6020684169A26921F4407114
:101D8000114341611E492068884202D1FFF71CFAC5
:101D900001E0FFF709FA00EBC00101EB00126068F7
:101DA00064218000B2FBF0F3B3FBF1F36FF018068F
:101DB0007343B2FBF0F5B2FBF0F605EB830532237B
:101DC00003EB0515B5FBF1F5B6FBF1F605F0F005F3
:101DD00005EB0615B2FBF0F6B2FBF0F0B0FBF1F04C
:101DE0006FF01802504306EB800003EB0010B0FBCD
:101DF000F1F0216800F00F002844886070BD0000F9
:101E00000038014081628285C2850021416422211F
:101E100080F84210016921B10168CA6842F48072F9
:101E2000CA6001684A6942F001024A610068C168FB
:101E300041F02001C160002070472DE9F843984629
:101E400017460D460446089E24E0701C22D0FFF77A
:101E500059F8A0EB0800B0421AD8CEB12068C1688A
:101E6000490717D5802D15D0402D13D00168C943DF
:101E700009070FD401680025406800902046FFF74D
:101E8000DDFE0820606484F840500120BDE8F8833E
:101E90000320FBE72068006835EA000004D000203A
:101EA000B842D2D00020F1E70120F9E70148FFF75E
:101EB0001BBC000038000020FEE70907090E0028BF
:101EC00004DB00F1E02080F80014704700F00F0000
:101ED00000F1E02080F8141D704702E008C8121FCE
:101EE00008C1002AFAD170477047002001E001C103
:101EF000121F002AFBD170470024FFF711F8FFF7EB
:101F000065FEFFF709FEFFF73FFEFEF79DFA4FF46F
:101F10007A774FF40055084EFEF702FCFEF7F2FF09
:101F2000001BB842F8D3FEF7EDFF044629463046C1
:101F3000FEF7DAFFF0E700000010014001020203A3
:101F40000405060708090A0B0C0D0E0F10100000FF
:101F50000000000000000102030406070809000059
:101F60000000010203040000881F00080000002098
:101F700038000000DA1E0008C01F000838000020EA
:101F800068080000EA1E00080100000010000000C0
:101F90000000000000127A000000000000FF0000B6
:101FA0000000000000000000000000000000000031
:101FB00000000000FFFFFFFF004000080040000895
:04000005080000ED02
:00000001FF
